{
  "contractName": "Item",
  "abi": [
    {
      "inputs": [
        {
          "internalType": "uint256",
          "name": "_price",
          "type": "uint256"
        },
        {
          "internalType": "uint256",
          "name": "_index",
          "type": "uint256"
        },
        {
          "internalType": "contract ItemManager",
          "name": "_Im",
          "type": "address"
        }
      ],
      "stateMutability": "nonpayable",
      "type": "constructor"
    },
    {
      "stateMutability": "nonpayable",
      "type": "fallback"
    },
    {
      "inputs": [],
      "name": "AmountPaid",
      "outputs": [
        {
          "internalType": "uint256",
          "name": "",
          "type": "uint256"
        }
      ],
      "stateMutability": "view",
      "type": "function"
    },
    {
      "inputs": [],
      "name": "Index",
      "outputs": [
        {
          "internalType": "uint256",
          "name": "",
          "type": "uint256"
        }
      ],
      "stateMutability": "view",
      "type": "function"
    },
    {
      "inputs": [],
      "name": "Price",
      "outputs": [
        {
          "internalType": "uint256",
          "name": "",
          "type": "uint256"
        }
      ],
      "stateMutability": "view",
      "type": "function"
    },
    {
      "stateMutability": "payable",
      "type": "receive"
    }
  ],
  "bytecode": "0x608060405234801561001057600080fd5b5060405161077238038061077283398181016040528101906100329190610134565b826000819055508160028190555080600360006101000a81548173ffffffffffffffffffffffffffffffffffffffff021916908373ffffffffffffffffffffffffffffffffffffffff160217905550505050610187565b600080fd5b6000819050919050565b6100a18161008e565b81146100ac57600080fd5b50565b6000815190506100be81610098565b92915050565b600073ffffffffffffffffffffffffffffffffffffffff82169050919050565b60006100ef826100c4565b9050919050565b6000610101826100e4565b9050919050565b610111816100f6565b811461011c57600080fd5b50565b60008151905061012e81610108565b92915050565b60008060006060848603121561014d5761014c610089565b5b600061015b868287016100af565b935050602061016c868287016100af565b925050604061017d8682870161011f565b9150509250925092565b6105dc806101966000396000f3fe6080604052600436106100385760003560e01c80635ace4d961461024e5780639dfde20114610279578063a5a8eba8146102a457610240565b36610240576000543414610081576040517f08c379a000000000000000000000000000000000000000000000000000000000815260040161007890610364565b60405180910390fd5b6000600154146100c6576040517f08c379a00000000000000000000000000000000000000000000000000000000081526004016100bd906103d0565b60405180910390fd5b34600160008282546100d89190610429565b925050819055506000600360009054906101000a900473ffffffffffffffffffffffffffffffffffffffff1673ffffffffffffffffffffffffffffffffffffffff163460025460405160240161012e919061048e565b6040516020818303038152906040527f800fb83f000000000000000000000000000000000000000000000000000000007bffffffffffffffffffffffffffffffffffffffffffffffffffffffff19166020820180517bffffffffffffffffffffffffffffffffffffffffffffffffffffffff83818316178352505050506040516101b89190610523565b60006040518083038185875af1925050503d80600081146101f5576040519150601f19603f3d011682016040523d82523d6000602084013e6101fa565b606091505b505090508061023e576040517f08c379a000000000000000000000000000000000000000000000000000000000815260040161023590610586565b60405180910390fd5b005b34801561024c57600080fd5b005b34801561025a57600080fd5b506102636102cf565b604051610270919061048e565b60405180910390f35b34801561028557600080fd5b5061028e6102d5565b60405161029b919061048e565b60405180910390f35b3480156102b057600080fd5b506102b96102db565b6040516102c6919061048e565b60405180910390f35b60025481565b60005481565b60015481565b600082825260208201905092915050565b7f57652020646f6e27742020737570706f727420207061727469616c202070617960008201527f6d656e7473000000000000000000000000000000000000000000000000000000602082015250565b600061034e6025836102e1565b9150610359826102f2565b604082019050919050565b6000602082019050818103600083015261037d81610341565b9050919050565b7f4974656d202069732020616c7265616479202070616964210000000000000000600082015250565b60006103ba6018836102e1565b91506103c582610384565b602082019050919050565b600060208201905081810360008301526103e9816103ad565b9050919050565b6000819050919050565b7f4e487b7100000000000000000000000000000000000000000000000000000000600052601160045260246000fd5b6000610434826103f0565b915061043f836103f0565b9250827fffffffffffffffffffffffffffffffffffffffffffffffffffffffffffffffff03821115610474576104736103fa565b5b828201905092915050565b610488816103f0565b82525050565b60006020820190506104a3600083018461047f565b92915050565b600081519050919050565b600081905092915050565b60005b838110156104dd5780820151818401526020810190506104c2565b838111156104ec576000848401525b50505050565b60006104fd826104a9565b61050781856104b4565b93506105178185602086016104bf565b80840191505092915050565b600061052f82846104f2565b915081905092915050565b7f44656c6976657279202064696420206e6f742020776f726b0000000000000000600082015250565b60006105706018836102e1565b915061057b8261053a565b602082019050919050565b6000602082019050818103600083015261059f81610563565b905091905056fea2646970667358221220ceae524aaccb5ede2051ff70903e68b3e99d52cc0faa71fe7ba8f428e3b414ae64736f6c634300080d0033",
  "immutableReferences": {},
  "source": "// SPDX-License-Identifier: MIT\r\npragma solidity ^0.8.0;\r\nimport \"./ItemManager.sol\";\r\ncontract Item{\r\n    uint public Price;\r\n    uint public AmountPaid;\r\n    uint public Index;\r\n\r\n    ItemManager Imcontract;\r\n\r\n    constructor(uint _price,uint _index,ItemManager _Im){\r\n        Price=_price;\r\n        Index=_index;\r\n        Imcontract=_Im;\r\n    }\r\n    receive()  external  payable  {\r\n        require(msg.value  == Price,  \"We  don't  support  partial  payments\"); \r\n        require(AmountPaid  ==  0,  \"Item  is  already  paid!\");\r\n        AmountPaid  +=  msg.value;\r\n        (bool  success,  )  =  address(Imcontract).call{value:msg.value}(abi.encodeWithSignature(\"triggerPayment(uint256)\", Index));\r\n        require(success,  \"Delivery  did  not  work\");\r\n    }\r\n\r\n    fallback  ()  external  {\r\n\r\n    }\r\n\r\n\r\n}",
  "sourcePath": "D:\\EventTrigger\\contracts\\Item.sol",
  "compiler": {
    "name": "solc",
    "version": "0.8.13+commit.abaa5c0e.Emscripten.clang"
  },
  "schemaVersion": "3.4.6",
  "updatedAt": "2022-03-30T11:19:38.147Z",
  "devdoc": {
    "kind": "dev",
    "methods": {},
    "version": 1
  },
  "userdoc": {
    "kind": "user",
    "methods": {},
    "version": 1
  }
}