{
  "contractName": "ItemManager",
  "abi": [
    {
      "anonymous": false,
      "inputs": [
        {
          "indexed": false,
          "internalType": "uint256",
          "name": "_index",
          "type": "uint256"
        },
        {
          "indexed": false,
          "internalType": "uint256",
          "name": "_step",
          "type": "uint256"
        },
        {
          "indexed": false,
          "internalType": "address",
          "name": "_address",
          "type": "address"
        }
      ],
      "name": "SupplyChainStep",
      "type": "event"
    },
    {
      "inputs": [
        {
          "internalType": "uint256",
          "name": "",
          "type": "uint256"
        }
      ],
      "name": "items",
      "outputs": [
        {
          "internalType": "contract Item",
          "name": "item",
          "type": "address"
        },
        {
          "internalType": "string",
          "name": "_Identifier",
          "type": "string"
        },
        {
          "internalType": "enum ItemManager.ItemStatus",
          "name": "state",
          "type": "uint8"
        }
      ],
      "stateMutability": "view",
      "type": "function",
      "constant": true
    },
    {
      "inputs": [
        {
          "internalType": "string",
          "name": "_Identifier",
          "type": "string"
        },
        {
          "internalType": "uint256",
          "name": "_ItemPrice",
          "type": "uint256"
        }
      ],
      "name": "CreateItem",
      "outputs": [],
      "stateMutability": "nonpayable",
      "type": "function"
    },
    {
      "inputs": [
        {
          "internalType": "uint256",
          "name": "_index",
          "type": "uint256"
        }
      ],
      "name": "TriggerPayment",
      "outputs": [],
      "stateMutability": "payable",
      "type": "function",
      "payable": true
    },
    {
      "inputs": [
        {
          "internalType": "uint256",
          "name": "_index",
          "type": "uint256"
        }
      ],
      "name": "TriggerDelivery",
      "outputs": [],
      "stateMutability": "nonpayable",
      "type": "function"
    }
  ],
  "bytecode": "0x608060405234801561001057600080fd5b506117e9806100206000396000f3fe608060405260043610620000445760003560e01c80632a5317ab14620000495780636d6927881462000077578063bfb231d21462000097578063f984ba6914620000dd575b600080fd5b3480156200005657600080fd5b506200007560048036038101906200006f919062000865565b6200010b565b005b6200009560048036038101906200008f919062000865565b62000268565b005b348015620000a457600080fd5b50620000c36004803603810190620000bd919062000865565b620004f3565b604051620000d49392919062000a46565b60405180910390f35b348015620000ea57600080fd5b5062000109600480360381019062000103919062000bdb565b620005da565b005b60016002811115620001225762000121620009c6565b5b60008083815260200190815260200160002060020160009054906101000a900460ff1660028111156200015a5762000159620009c6565b5b146200019d576040517f08c379a0000000000000000000000000000000000000000000000000000000008152600401620001949062000c91565b60405180910390fd5b600260008083815260200190815260200160002060020160006101000a81548160ff02191690836002811115620001d957620001d8620009c6565b5b02179055507fa4035636e99f06b7651a604c1019fa4e8779fe68ef27eeb74dff2de348f6199b81600280811115620002165762000215620009c6565b5b60008085815260200190815260200160002060000160009054906101000a900473ffffffffffffffffffffffffffffffffffffffff166040516200025d9392919062000ce9565b60405180910390a150565b600080600083815260200190815260200160002060000160009054906101000a900473ffffffffffffffffffffffffffffffffffffffff1690503373ffffffffffffffffffffffffffffffffffffffff168173ffffffffffffffffffffffffffffffffffffffff161462000313576040517f08c379a00000000000000000000000000000000000000000000000000000000081526004016200030a9062000d9c565b60405180910390fd5b348173ffffffffffffffffffffffffffffffffffffffff16639dfde2016040518163ffffffff1660e01b8152600401602060405180830381865afa15801562000360573d6000803e3d6000fd5b505050506040513d601f19601f8201168201806040525081019062000386919062000dd5565b14620003c9576040517f08c379a0000000000000000000000000000000000000000000000000000000008152600401620003c09062000e57565b60405180910390fd5b60006002811115620003e057620003df620009c6565b5b60008084815260200190815260200160002060020160009054906101000a900460ff166002811115620004185762000417620009c6565b5b146200045b576040517f08c379a0000000000000000000000000000000000000000000000000000000008152600401620004529062000ec9565b60405180910390fd5b600160008084815260200190815260200160002060020160006101000a81548160ff02191690836002811115620004975762000496620009c6565b5b02179055507fa4035636e99f06b7651a604c1019fa4e8779fe68ef27eeb74dff2de348f6199b8260016002811115620004d557620004d4620009c6565b5b83604051620004e79392919062000ce9565b60405180910390a15050565b60006020528060005260406000206000915090508060000160009054906101000a900473ffffffffffffffffffffffffffffffffffffffff16908060010180546200053e9062000f1a565b80601f01602080910402602001604051908101604052809291908181526020018280546200056c9062000f1a565b8015620005bd5780601f106200059157610100808354040283529160200191620005bd565b820191906000526020600020905b8154815290600101906020018083116200059f57829003601f168201915b5050505050908060020160009054906101000a900460ff16905083565b60008160015430604051620005ef9062000758565b620005fd9392919062000f88565b604051809103906000f0801580156200061a573d6000803e3d6000fd5b50905080600080600154815260200190815260200160002060000160006101000a81548173ffffffffffffffffffffffffffffffffffffffff021916908373ffffffffffffffffffffffffffffffffffffffff1602179055508260008060015481526020019081526020016000206001019080519060200190620006a092919062000766565b506000806000600154815260200190815260200160002060020160006101000a81548160ff02191690836002811115620006df57620006de620009c6565b5b02179055507fa4035636e99f06b7651a604c1019fa4e8779fe68ef27eeb74dff2de348f6199b600154600060028111156200071f576200071e620009c6565b5b83604051620007319392919062000ce9565b60405180910390a1600160008154809291906200074e9062000ff4565b9190505550505050565b610772806200104283390190565b828054620007749062000f1a565b90600052602060002090601f016020900481019282620007985760008555620007e4565b82601f10620007b357805160ff1916838001178555620007e4565b82800160010185558215620007e4579182015b82811115620007e3578251825591602001919060010190620007c6565b5b509050620007f39190620007f7565b5090565b5b8082111562000812576000816000905550600101620007f8565b5090565b6000604051905090565b600080fd5b600080fd5b6000819050919050565b6200083f816200082a565b81146200084b57600080fd5b50565b6000813590506200085f8162000834565b92915050565b6000602082840312156200087e576200087d62000820565b5b60006200088e848285016200084e565b91505092915050565b600073ffffffffffffffffffffffffffffffffffffffff82169050919050565b6000819050919050565b6000620008e2620008dc620008d68462000897565b620008b7565b62000897565b9050919050565b6000620008f682620008c1565b9050919050565b60006200090a82620008e9565b9050919050565b6200091c81620008fd565b82525050565b600081519050919050565b600082825260208201905092915050565b60005b838110156200095e57808201518184015260208101905062000941565b838111156200096e576000848401525b50505050565b6000601f19601f8301169050919050565b6000620009928262000922565b6200099e81856200092d565b9350620009b08185602086016200093e565b620009bb8162000974565b840191505092915050565b7f4e487b7100000000000000000000000000000000000000000000000000000000600052602160045260246000fd5b6003811062000a095762000a08620009c6565b5b50565b600081905062000a1c82620009f5565b919050565b600062000a2e8262000a0c565b9050919050565b62000a408162000a21565b82525050565b600060608201905062000a5d600083018662000911565b818103602083015262000a71818562000985565b905062000a82604083018462000a35565b949350505050565b600080fd5b600080fd5b7f4e487b7100000000000000000000000000000000000000000000000000000000600052604160045260246000fd5b62000ace8262000974565b810181811067ffffffffffffffff8211171562000af05762000aef62000a94565b5b80604052505050565b600062000b0562000816565b905062000b13828262000ac3565b919050565b600067ffffffffffffffff82111562000b365762000b3562000a94565b5b62000b418262000974565b9050602081019050919050565b82818337600083830152505050565b600062000b7462000b6e8462000b18565b62000af9565b90508281526020810184848401111562000b935762000b9262000a8f565b5b62000ba084828562000b4e565b509392505050565b600082601f83011262000bc05762000bbf62000a8a565b5b813562000bd284826020860162000b5d565b91505092915050565b6000806040838503121562000bf55762000bf462000820565b5b600083013567ffffffffffffffff81111562000c165762000c1562000825565b5b62000c248582860162000ba8565b925050602062000c37858286016200084e565b9150509250929050565b7f4974656d20697320616c72656164792064656c69766572656400000000000000600082015250565b600062000c796019836200092d565b915062000c868262000c41565b602082019050919050565b6000602082019050818103600083015262000cac8162000c6a565b9050919050565b62000cbe816200082a565b82525050565b600062000cd18262000897565b9050919050565b62000ce38162000cc4565b82525050565b600060608201905062000d00600083018662000cb3565b62000d0f602083018562000cb3565b62000d1e604083018462000cd8565b949350505050565b7f4f6e6c7920206974656d7320206172652020616c6c6f7765642020746f20207560008201527f706461746520207468656d73656c766573000000000000000000000000000000602082015250565b600062000d846031836200092d565b915062000d918262000d26565b604082019050919050565b6000602082019050818103600083015262000db78162000d75565b9050919050565b60008151905062000dcf8162000834565b92915050565b60006020828403121562000dee5762000ded62000820565b5b600062000dfe8482850162000dbe565b91505092915050565b7f6f6e6c792066756c6c207061796d656e74206163636570746564000000000000600082015250565b600062000e3f601a836200092d565b915062000e4c8262000e07565b602082019050919050565b6000602082019050818103600083015262000e728162000e30565b9050919050565b7f497420697320616c726561647920706169640000000000000000000000000000600082015250565b600062000eb16012836200092d565b915062000ebe8262000e79565b602082019050919050565b6000602082019050818103600083015262000ee48162000ea2565b9050919050565b7f4e487b7100000000000000000000000000000000000000000000000000000000600052602260045260246000fd5b6000600282049050600182168062000f3357607f821691505b60208210810362000f495762000f4862000eeb565b5b50919050565b600062000f5c82620008c1565b9050919050565b600062000f708262000f4f565b9050919050565b62000f828162000f63565b82525050565b600060608201905062000f9f600083018662000cb3565b62000fae602083018562000cb3565b62000fbd604083018462000f77565b949350505050565b7f4e487b7100000000000000000000000000000000000000000000000000000000600052601160045260246000fd5b600062001001826200082a565b91507fffffffffffffffffffffffffffffffffffffffffffffffffffffffffffffffff820362001036576200103562000fc5565b5b60018201905091905056fe608060405234801561001057600080fd5b5060405161077238038061077283398181016040528101906100329190610134565b826000819055508160028190555080600360006101000a81548173ffffffffffffffffffffffffffffffffffffffff021916908373ffffffffffffffffffffffffffffffffffffffff160217905550505050610187565b600080fd5b6000819050919050565b6100a18161008e565b81146100ac57600080fd5b50565b6000815190506100be81610098565b92915050565b600073ffffffffffffffffffffffffffffffffffffffff82169050919050565b60006100ef826100c4565b9050919050565b6000610101826100e4565b9050919050565b610111816100f6565b811461011c57600080fd5b50565b60008151905061012e81610108565b92915050565b60008060006060848603121561014d5761014c610089565b5b600061015b868287016100af565b935050602061016c868287016100af565b925050604061017d8682870161011f565b9150509250925092565b6105dc806101966000396000f3fe6080604052600436106100385760003560e01c80635ace4d961461024e5780639dfde20114610279578063a5a8eba8146102a457610240565b36610240576000543414610081576040517f08c379a000000000000000000000000000000000000000000000000000000000815260040161007890610364565b60405180910390fd5b6000600154146100c6576040517f08c379a00000000000000000000000000000000000000000000000000000000081526004016100bd906103d0565b60405180910390fd5b34600160008282546100d89190610429565b925050819055506000600360009054906101000a900473ffffffffffffffffffffffffffffffffffffffff1673ffffffffffffffffffffffffffffffffffffffff163460025460405160240161012e919061048e565b6040516020818303038152906040527f800fb83f000000000000000000000000000000000000000000000000000000007bffffffffffffffffffffffffffffffffffffffffffffffffffffffff19166020820180517bffffffffffffffffffffffffffffffffffffffffffffffffffffffff83818316178352505050506040516101b89190610523565b60006040518083038185875af1925050503d80600081146101f5576040519150601f19603f3d011682016040523d82523d6000602084013e6101fa565b606091505b505090508061023e576040517f08c379a000000000000000000000000000000000000000000000000000000000815260040161023590610586565b60405180910390fd5b005b34801561024c57600080fd5b005b34801561025a57600080fd5b506102636102cf565b604051610270919061048e565b60405180910390f35b34801561028557600080fd5b5061028e6102d5565b60405161029b919061048e565b60405180910390f35b3480156102b057600080fd5b506102b96102db565b6040516102c6919061048e565b60405180910390f35b60025481565b60005481565b60015481565b600082825260208201905092915050565b7f57652020646f6e27742020737570706f727420207061727469616c202070617960008201527f6d656e7473000000000000000000000000000000000000000000000000000000602082015250565b600061034e6025836102e1565b9150610359826102f2565b604082019050919050565b6000602082019050818103600083015261037d81610341565b9050919050565b7f4974656d202069732020616c7265616479202070616964210000000000000000600082015250565b60006103ba6018836102e1565b91506103c582610384565b602082019050919050565b600060208201905081810360008301526103e9816103ad565b9050919050565b6000819050919050565b7f4e487b7100000000000000000000000000000000000000000000000000000000600052601160045260246000fd5b6000610434826103f0565b915061043f836103f0565b9250827fffffffffffffffffffffffffffffffffffffffffffffffffffffffffffffffff03821115610474576104736103fa565b5b828201905092915050565b610488816103f0565b82525050565b60006020820190506104a3600083018461047f565b92915050565b600081519050919050565b600081905092915050565b60005b838110156104dd5780820151818401526020810190506104c2565b838111156104ec576000848401525b50505050565b60006104fd826104a9565b61050781856104b4565b93506105178185602086016104bf565b80840191505092915050565b600061052f82846104f2565b915081905092915050565b7f44656c6976657279202064696420206e6f742020776f726b0000000000000000600082015250565b60006105706018836102e1565b915061057b8261053a565b602082019050919050565b6000602082019050818103600083015261059f81610563565b905091905056fea2646970667358221220ceae524aaccb5ede2051ff70903e68b3e99d52cc0faa71fe7ba8f428e3b414ae64736f6c634300080d0033a264697066735822122066032dbc678bf19758a5e367983d91e88b0edc9202c4631722956fe00337bfba64736f6c634300080d0033",
  "immutableReferences": {},
  "source": "// SPDX-License-Identifier: MIT\r\npragma solidity ^0.8.0;\r\nimport \"./Item.sol\";\r\nimport \"./Ownable.sol\";\r\ncontract ItemManager{\r\n\r\n    enum ItemStatus{Created,Paid,Delivered}\r\n\r\n    struct ItemList{\r\n        Item item;\r\n        string _Identifier;\r\n        ItemManager.ItemStatus state;\r\n    }\r\n    event SupplyChainStep(uint _index,uint _step,address _address);\r\n    mapping(uint=>ItemList)public items;\r\n    uint Index;\r\n    function CreateItem(string memory _Identifier,uint _ItemPrice)public {\r\n        Item item=new Item(_ItemPrice,Index,this);\r\n        items[Index].item=item;\r\n        items[Index]._Identifier=_Identifier;\r\n        items[Index].state=ItemStatus.Created;\r\n        emit SupplyChainStep(Index,uint(ItemStatus.Created),address(item));\r\n        Index++;\r\n        \r\n    }\r\n\r\n    function TriggerPayment(uint _index)payable public {\r\n        Item item=items[_index].item;\r\n        require(address(item)==msg.sender,\"Only  items  are  allowed  to  update  themselves\");\r\n        require(item.Price()==msg.value,\"only full payment accepted\");\r\n        require(items[_index].state==ItemStatus.Created,\"It is already paid\");\r\n        items[_index].state=ItemStatus.Paid;\r\n        emit SupplyChainStep(_index,uint(ItemStatus.Paid),address(item));\r\n\r\n    }\r\n    function TriggerDelivery(uint _index)public{\r\n        require(items[_index].state==ItemStatus.Paid,\"Item is already delivered\");\r\n        items[_index].state=ItemStatus.Delivered;\r\n        emit SupplyChainStep(_index,uint(ItemStatus.Delivered),address(items[_index].item));\r\n    }\r\n}\r\n\r\n",
  "sourcePath": "D:\\EventTrigger\\contracts\\ItemManager.sol",
  "compiler": {
    "name": "solc",
    "version": "0.8.13+commit.abaa5c0e.Emscripten.clang"
  },
  "schemaVersion": "3.4.6",
  "updatedAt": "2022-03-30T11:19:39.353Z",
  "networkType": "ethereum",
  "devdoc": {
    "kind": "dev",
    "methods": {},
    "version": 1
  },
  "userdoc": {
    "kind": "user",
    "methods": {},
    "version": 1
  }
}